:020000021000EC
:109000000060002065280200B9280200BB28020089
:10901000BD280200BF280200C12802000000000095
:10902000000000000000000000000000C328020053
:10903000C528020000000000C7280200C92802005D
:1090400001C00100CB280200E1C10100CB280200D1
:10905000CB2802000000000091C0010075FC010057
:10906000CB280200899D0100999D0100CB280200B8
:10907000CB280200CB280200CB280200CB2802001C
:10908000CB280200E5B00100CB280200CB2802006B
:10909000CB280200CB280200BDDB0100CB28020058
:1090A000CB280200CB2802000000000000000000D6
:1090B000CB280200CB2802000000000000000000C6
:1090C00000000000000000000000000000000000A0
:1090D0000000000000000000000000000000000090
:1090E0000000000000000000000000000000000080
:1090F0000000000000000000000000000000000070
:10910000000000000000000000000000000000005F
:10911000000000000000000000000000000000004F
:10912000000000000000000000000000000000003F
:10913000000000000000000000000000000000002F
:10914000000000000000000000000000000000001F
:10915000000000000000000000000000000000000F
:1091600000000000000000000000000000000000FF
:1091700000000000000000000000000000000000EF
:1091800000000000000000000000000000000000DF
:1091900000000000000000000000000000000000CF
:1091A00000000000000000000000000000000000BF
:1091B00000000000000000000000000000000000AF
:1091C000000000000000000000000000000000009F
:1091D000000000000000000000000000000000008F
:1091E000000000000000000000000000000000007F
:1091F000000000000000000000000000000000006F
:1092000010B5054C237833B9044B13B10448AFF3C0
:1092100000800123237010BD501E002000000000BC
:10922000CC42020008B5034B1BB103490348AFF31E
:10923000008008BD00000000541E0020CC42020047
:10924000A3F5803A704700BF174B002B08BF134BA4
:109250009D46FFF7F5FF00218B460F461348144A41
:10926000121A09F079FB0E4B002B00D098470D4BDA
:10927000002B00D098470020002104000D000D486D
:10928000002802D00C48AFF3008009F033FB200027
:10929000290000F017F909F019FB00BF00000800D1
:1092A000000000000000000000600020501E0020B0
:1092B0001C390020000000000000000010B5074C21
:1092C0002378012B06D90021054A084601F0E4FA6B
:1092D0000023237023780133237010BD8C210020DC
:1092E0002511020008B509F0BFF909F0F1F90A48A3
:1092F000027853070CD509490B780133DBB21D2BDB
:109300000B7005D913466FF38203037000230B70B3
:10931000BDE8084009F0C2B86A3800206B37002069
:10932000042138B5144A002001F0B6FA134B144852
:109330001A7812F0080216BF016811460131016067
:109340001978C1F3C000C1F30011814210D05AB1A5
:109350000C4A0021FF2415780131042D08BF5473F5
:109360000A2902F11002F6D11A7860F304121A7079
:10937000BDE8384009F032BA750702006A380020AB
:10938000703800207837002038B506F07BFF06F0F3
:1093900011F838B31448154C154D1649241AE40831
:1093A000240444F00304204601F06CF8124B2A78A0
:1093B000124953F82220204601F068F86A881049C3
:1093C000204601F063F8AA880E49204601F05EF8B5
:1093D000B5F848200C49204601F058F8BDE838405F
:1093E00005F064BC38BD00BF544302009443020042
:1093F00018380020C02C0200D01B0020DB2C0200FB
:10940000E92C0200F62C0200032D020008B51E4ACA
:109410001E48012101F0A4FB08B101F0D3F91C485A
:109420000022A42101F0AEFB08B101F0CBF9194AEA
:109430001948012101F094FB08B101F0C3F9174864
:10944000002240F2666101F09DFB08B101F0BAF91B
:10945000134A1448012101F083FB08B101F0B2F96D
:10946000114800224FF4804101F08CFB08B101F05B
:10947000A9F918210D4A084601F0EAF918B1BDE82A
:10948000084001F09FB908BDBD920100342D0200D3
:10949000201B0020E5920100302D0200001B00205F
:1094A000219301002C2D0200E01A00206C1E0020E8
:1094B00008B500F0A3FE18B9BDE8084002F038BABC
:1094C00008BD000008B504F07BFD04F087FE04F041
:1094D000BFFC06F0F7F8FFF799FF05F0F1FB07F086
:1094E0006BF807F099F807F0D9F907F0E9FD08F0F3
:1094F00071FF05F08FFB0848084B0949C01AC008E6
:10950000000440F0030000F0BDFFFFF73DFF01F055
:1095100029FAFFF7CDFFF8E7944302005443020015
:10952000162D020013B50B46114680B9104B114899
:10953000114AC01A0E23C0080093104B00041049B2
:1095400040F0010000F0B5FF0E2002B010BD4BB995
:10955000074B08480B4AC01AC0080E2300930004AA
:10956000064BECE703601B6802B0BDE810401847EB
:1095700054430200C4430200382D0200CE2E0200E4
:109580003D2D02006C2D0200F7B580B92B4B2C4805
:109590002C4AC01AC0080E242B4B009400042B49FF
:1095A00040F0010000F085FF204603B0F0BD4AB94D
:1095B000224B2348264AC01AC0080E24224B00948E
:1095C0000004ECE707684FB91C4B1D48214AC01A3C
:1095D000C00808241C4B00940004E0E74BB9174B6B
:1095E00017481D4AC01AC0080924174B00940004EC
:1095F000D5E78E0709D0114B1148184AC01AC00888
:109600001024114B00940004C9E7C668B1420AD384
:1096100005694C1E1C44AC4205D8BC68A44603B086
:10962000BDE8F0406047054B05480D4AC01AC00828
:109630001024054B00940004B1E700BF544302001E
:10964000C4430200382D0200E02E02003D2D02002E
:10965000722D0200662D0200792D02007D2D020080
:10966000942D02002DE9F34188B93D4B3D483E4A17
:10967000C01AC0080E243D4B009400043C4940F041
:10968000010000F016FF204602B0BDE8F0814AB9A3
:10969000334B3448374AC01AC0080E24334B009469
:1096A0000004EBE7D0F800E0BEF1000F09D12C4B2D
:1096B0002C48314AC01AC00808242C4B00940004DE
:1096C000DCE74BB9264B27482C4AC01AC0080924AE
:1096D000264B00940004D1E74768D7F80480B3FB19
:1096E000F8F708FB17374FB11D4B1E48244AC01A24
:1096F000C00809241D4B00940004BFE78F0709D060
:10970000174B18481F4AC01AC0081024174B009462
:109710000004B3E712F0030F09D0114B11481A4AA5
:10972000C01AC0081024114B00940004A6E7C768B3
:10973000B9420BD305694C1E1C44AC4206D8DEF876
:109740000C40A44602B0BDE8F0416047044B054818
:109750000E4AC01AC0081024044B009400048DE780
:1097600054430200C4430200382D0200F22E0200CE
:109770003D2D0200BA2D0200662D0200792D020057
:10978000C02D0200EA2D0200022E0200252E02004A
:10979000F7B580B92A4B2B482B4AC01AC0080E24B3
:1097A0002A4B009400042A4940F0010000F081FE99
:1097B000204603B0F0BDD0F800C0BCF1000F09D1C5
:1097C0001F4B2048234AC01AC00808241F4B00948E
:1097D0000004E8E74AB91A4B1A481F4AC01AC008E1
:1097E00009241A4B00940004DDE74768D7F800E02D
:1097F0000EF1FF370F4209D0114B1248174AC01A19
:10980000C0081024114B00940004CCE7C768B9428B
:109810000CD304694D1E0EFB0255A54206D8DCF898
:109820001040A44603B0BDE8F0406047044B054833
:109830000B4AC01AC0081024044B00940004B2E77D
:1098400054430200C4430200382D0200052F0200D9
:109850003D2D0200662D0200792D02004C2E0200E3
:10986000722E020070B550B90E4D0F4C0026641BCD
:109870001423B4FBF3F4B44208D1002010E00368D1
:10988000002BF1D0BDE87040DB6918472B6813B995
:1098900001361435EFE7DB69284698470028F7D0F2
:1098A00070BD00BF3C1E0020501E002029DF704705
:1098B00028DF704770B50668B36886B004460D4669
:1098C00073B114220021684609F046F8A368059395
:1098D0002379019533B1012B0ED0B36868469847C0
:1098E00006B070BD01238DF8003023690293E36850
:1098F000039363690493F0E702238DF80030E36873
:109900001B030293F5E708467047002070470000EC
:10991000024B187A003818BF012070472C22002013
:10992000034B187A0122B0FA80F05A74400970474C
:109930002C22002008B510461A4608F0FFFF002030
:1099400008BD000008B514220021044809F004F8FD
:10995000034801F0E4FB002008BD00BF2C220020DA
:109960001C22002010B5094C094B4360204601F031
:10997000DCFC40B904F008F9064920741C230648B1
:109980008C2201F0B9FB002010BD00BF2C2200206A
:10999000182F0200902100201C22002070B5244CBA
:1099A000244E237A25463BB92349244801F013FC71
:1099B000306008B9606070BD022334682B7223796F
:1099C00073B1012B25D020460321FFF773FF00233D
:1099D0002B726B60BDE870401749184801F026BC37
:1099E000D4E90523D21AB2F5805FD4E9031028BF69
:1099F0004FF480529208012A38BF012219441844BA
:109A0000FFF754FF014650B11128DCD101232B721E
:109A1000D1E7D4E903031844FFF74AFFF2E72B7CB0
:109A2000002BC8D1BDE87040022000F009B800BF8B
:109A30002C22002044220020402200201C22002052
:109A400038B5831E012B45D8234C237A002B41D0F7
:109A5000022B09D1032830D0204B00221B68E26082
:109A60001A793AB1012A22D0637C7BBBBDE8384029
:109A7000FFF794BFD3E905128D1AB5F5805F94BF47
:109A8000521902F580529A619142EDD102284FF0AD
:109A9000000308BF19462372104B18BF0D21186828
:109AA000FFF708FF0E490F4801F0C0FBDCE71A6919
:109AB00001321A615B699A42E7E7E3680133082BD8
:109AC00001D8E360D0E70023E360DFE7BDE838407A
:109AD00004F04AB838BD00BF2C22002044220020E8
:109AE000402200201C22002000F0FD03012B08D1A1
:109AF000044B00225A74421E504250411874FFF722
:109B00004DBF70472C22002010B5064C201D01F0DF
:109B10000CFC28B9637C1BB9BDE81040FFF73EBFC1
:109B200010BD00BF2C2200202DE9F34180460D46D8
:109B30000F4801A916461F4601F013FB0446A8B1C1
:109B40001C22002108F008FF2D0B0123237101A91D
:109B50000748C4F80080A760E560666101F02BFB50
:109B6000FFF7D2FF002002B0BDE8F0810420FAE741
:109B70001C2200202DE9F74381468846104801A9A0
:109B800017461E4601F0EDFA0446B0B11C22002132
:109B900008F0E2FE00250A9BA36001A9C4E903784E
:109BA00007482571C4F80090666101F004FBFFF7D7
:109BB000ABFF284603B0BDE8F0830420FAE700BFFE
:109BC0001C2200202DE9F743002406460F4600F52D
:109BD000A0754FF48038A1462B688BB1D6F80433BA
:109BE00008FA04F21A420BD0C5F800902B680193D2
:109BF000019BA30003F5A07398B2D7E90031984701
:109C00000134042C05F10405E6D103B0BDE8F0836E
:109C1000F7B50679334D0C237343EF1814463A7A9F
:109C2000002A5DD1EC504B687B609446477903680D
:109C3000D4B2A7424AD8CA781C0B43F30733002B8F
:109C4000AEBF03F16043284B04F00F044FEA421209
:109C5000D2B2AABF03F561431A5583F80023036803
:109C60001A0B43F30733002B07DB02F01F0401221A
:109C7000A2405B091D4C44F8232004684B78D4F8BB
:109C8000042503F0030322F003021343C4F8043550
:109C900004688B78D4F8082503F0030322F003024C
:109CA0001343C4F8083500680B78D0F8102503F08A
:109CB0000F0322F00F021343C0F810350C2303FBEF
:109CC000065501232B72002003B0F0BDA40004F55B
:109CD000A074013243F804C01B590193019BA5E70E
:109CE0000820F1E74822002014ED00E000E100E048
:109CF000036801221A600379034A0C2101FB032344
:109D000002221A72704700BF482200200379044AD9
:109D10000C2101FB0323187A831E584258417047D7
:109D20004822002073B54FF4803405688C408BB115
:109D30008B0003F5A0730026EE50EB580193019BB6
:109D40000368C3F80443036801F5A87143F82120B0
:109D500002B070BDC5F80843F5E7F0B4076840F2FB
:109D60000116D7F800528E4025EA0605C7F80052C2
:109D70000468D4F800522B43C4F800329DF8103028
:109D8000F0BCFFF7CFBF000001490248FFF71ABF40
:109D9000482200200090004001490248FFF712BF0E
:109DA0005422002000A000407047000007B5044B7B
:109DB0000093044A402300F032F803B05DF804FB3E
:109DC000C99D0100612200202DE9F8438846144610
:109DD000B2B10F4B0F4E0325002743F00109224675
:109DE00008EB0701002002F057FF0744241A48B986
:109DF00033782BB14FF47A40C847013D02D135701A
:109E0000BDE8F88301233370002CE8D1F8E700BFE8
:109E1000502F020060220020704702F071BFF0B5A1
:109E200095B01D46164608460C4601F041FD1A9BAA
:109E30000D93CDE9086500252B46082205A920468B
:109E40000A958DF82C500C9501F04FFD079B02935D
:109E5000069B03939DF814308DF8115003F0030214
:109E6000012A1DD1BDF81420059DC3F3C203C2F31E
:109E700083168DF81030B20008230EA9204601F099
:109E800034FDC5F3952508AB0093324602AB0EA90D
:109E9000284600F0D5FB204601F00EFD15B0F0BDC0
:109EA000022AF8D1BDF81650C3F3C203C5F38915D1
:109EB0008DF810300827082D2E4628BF08263B466F
:109EC00032460EA9204601F010FDAD1B08AB02AAD8
:109ED00031460EA8374400F017FC002DEBD1DAE72D
:109EE0007047000007B5044B0093044A4023FFF776
:109EF00096FF03B05DF804FB519F0100A2220020F1
:109F000030B5104D0FCD89B06C460FC495E80F00E9
:109F100084E80F004FF0FF330622CDE90023CDE99E
:109F2000023309484FF0EB7300226946069301F0B3
:109F3000EDFF08B100F046FC044B00221A7009B096
:109F400030BD00BF642F0200401B0020A122002072
:109F500038B50D4B0D4D002018700D4804782D5D5F
:109F6000D2B21C4665B1043002F0C8FD08B100F061
:109F700029FC084B1A7812B12378002BFBD038BD8E
:109F80000C3002F06FFBF1E7E22200209038002055
:109F9000401B0020A122002008B50848084A037889
:109FA000D35C33B1043002F019FDBDE80840FFF77F
:109FB000A7BF0C3002F0E8FAF7E700BF401B002013
:109FC00090380020FFF79CBF38B50A4DFFF725FFFA
:109FD0000421284600F09CFA074B01245C71FFF72E
:109FE000F1FF042105F1100000F092FA034B5C71BF
:109FF00038BD00BFF4430200541B00205C1B00204E
:10A000000378024613F0040006D003F00300012891
:10A0100003D0022809D0012070470B681288023350
:10A02000C2F3831213440B6070470B6852880233EB
:10A0300003EB92130B60EEE72DE9F04F87B000239E
:10A040000446861C0DF107000F4615468DF80730B3
:10A0500000F0CCFE404A51683960936803F5807384
:10A060005B1A924602F21C4702F5836902F2144819
:10A07000B3421AD30020002D69D004F00F039B01D6
:10A0800043F0050363F30F00DAF80430DAB2033269
:10A090001E444AF822009DF80700CAF8046000F048
:10A0A000C9FE012007B0BDE8F08F0121384601F05C
:10A0B00024F9484601F03CF9404601F039F9DAF854
:10A0C00008000290C0B203300AEB800002A9FFF73B
:10A0D00097FF029B30BBDAB20AEB8202D168039190
:10A0E0009A1C0133DBB20AEB83030292D3F80CB063
:10A0F00001F00303012B22D0022B15D083464046EA
:10A1000001F019F910B1029BCAF8083059463846D7
:10A1100001F0F3F8DAF80830DAF8042003F5807378
:10A120009B1AA5E7D8B2CEE7BDF80E30C3F389136A
:10A1300003334FEA1B4B02EB93030293DFE7BDF8B7
:10A140000C30C3F383134FEA1B4B1344F5E7A4050C
:10A1500044F0060098E700BFB4230020064B0748F0
:10A1600010B501221A7001F05CFB044610B90448D6
:10A1700001F0EAFB204610BDB4230020404302005A
:10A18000C82F020030B50A4C71B10A4A0A49121BA5
:10A19000D20800239A4201D1002030BD31F823506B
:10A1A000854202D00133F5E7034654F83300F4E763
:10A1B00054430200F4430200501E0020094B0139B1
:10A1C00003EBC000032909D8DFE801F00A02040606
:10A1D000042070470079704740797047002070472D
:10A1E0000220704754430200034BD3E90130C31AE5
:10A1F00058425841704700BFB42300202DE9F04178
:10A2000086B0FFF7F1FF0546002840F0E680744C69
:10A21000C4F81804BFF34F8FA3680293DBB2033373
:10A2200004EB830002A9FFF7EBFE029B18B1D4F800
:10A230001824002A55D0DAB2991C013304EB8202AB
:10A24000DBB204EB8303D268DB68049302F0030300
:10A25000022B039202914FD1BDF80E306148C3F337
:10A260008917502F3E4628BF502666F38F1306F1FC
:10A270000801ADF80E3001F0ECFA0546002800F0B8
:10A28000978001F015FB002303A90822284601F05E
:10A2900022FB0299CB43DBB20133C9B20331B6EBE7
:10A2A000830F4FEA830804EB810122D90823424639
:10A2B000A6EB0806284601F00EFBF6B24A4908F163
:10A2C00008033246284601F006FB029B033703EBE6
:10A2D00097070297D4F81834002B41D1D4F81064B2
:10A2E00051E062689A4299D8A260284606B0BDE85B
:10A2F000F08108233246E5E7012B59D1BDF80C3037
:10A300003848C3F38311062928BF062161F3891356
:10A3100002318900ADF80C3001F09BFA05460028A7
:10A3200046D001F0C5FA0023082203A9284601F00F
:10A33000D2FA0026BDF80C20C2F38312B300964275
:10A3400003F10803C6D202994A1CC9B20331029232
:10A3500004EB81010422284601F0BDFA0136E9E749
:10A36000284601F0A9FAFFF73FFF80F00105EDB2A2
:10A37000BBE7F3685B7923B1336829461B68304635
:10A380009847F3681E68002EF3D1284601F094FA2E
:10A390000DF107008DF8076000F028FDD4F818349F
:10A3A0000BB9029BA3609DF8070000F043FDDAE7BC
:10A3B000D4F8104454B90D4B0D480E49C01AC008CA
:10A3C000000440F0020000F05DF8CCE7236820466E
:10A3D0009B689847E3681C68ECE7002585E700BFA9
:10A3E000B423002040430200C02300205443020055
:10A3F00094430200B12F02002DE9F34704460E46B4
:10A40000924601A9012218469946FFF715FE1B4FF7
:10A4100010B3019D4FF00008AA1CC84508EB0201CB
:10A4200023D11748002100F02DFF80F31000000415
:10A4300040EA1440E4006B1C04F03804DBB2EDB2D7
:10A4400044F0010407EB8303033544EA881444EA2B
:10A450008624D86047F825403B781BB1FFF7CEFE35
:10A460000028FBD102B0BDE8F087C9B207EB81013B
:10A470005AF82830CB6008F10108CEE7B423002059
:10A48000D027002000231A46FFF7B6BF07B50123E7
:10A49000019201AAFFF7B0FF03B05DF804FB07B516
:10A4A000CDE9002302236A46FFF7A6FF03B05DF85B
:10A4B00004FB1FB5CDE90123069B039301AA0323E7
:10A4C000FFF79AFF05B05DF804FB7FB5CDE90123E6
:10A4D000089B0393099B04930A9B059301AA0523F8
:10A4E000FFF78AFF07B05DF804FB7FB5CDE90023D5
:10A4F000089B0293099B03930A9B04930B9B059370
:10A500006A460623FFF778FF07B05DF804FB0000FA
:10A5100030B5134AD2F8104403460020214649B909
:10A52000DC682071D2F8104454B9C2F81034DB68EA
:10A53000196030BDC9680D7985420AD00968EEE717
:10A54000E468D96824680C60D2F81024D2681360DB
:10A55000EFE701300A28E1D14FF0FF30E9E700BF13
:10A56000B423002038B5084A0123D2F810441370F0
:10A570001D4604B938BDE3685D71236820465B68F9
:10A580009847E3681C68F4E7B423002010B5037A09
:10A59000052B0C460FD0437A23B1084A08492046C0
:10A5A00000F02EFF0749204600F02AFF2046BDE8B4
:10A5B000104000F01ABF002AF8D0F3E7D42F0200B1
:10A5C000653D0200F62F020073B5C38804460D46B0
:10A5D00033B1144A00921449144A284600F010FF7F
:10A5E000217A05291CD0637A4BB1A088FFF7E6FDDC
:10A5F0000F4B104953F82020284600F001FF227A23
:10A600000D4BA08853F822600021FFF7BBFD0B49DA
:10A6100003463246284602B0BDE8704000F0F0BE66
:10A6200002B070BDD42F0200E12F0200D92F02002A
:10A630005C300200653D020080300200F92F02000C
:10A640002DE9F04385B01F460C9D002395F80C9032
:10A650002B7306460C46904629463846FFF7B4FF52
:10A66000B8F1060F09D8DFE808F00412181F2833E4
:10A6700040003146284600F0C3FE002229463846F5
:10A68000FFF784FF85F80C9005B0BDE8F0832268E1
:10A690003146284600F0B4FEEFE7D4E90023314606
:10A6A000284600F0ADFEE8E7A36800933146D4E900
:10A6B0000023284600F0A4FEDFE7E3680193A368C7
:10A6C00000933146D4E90023284600F099FED4E7F0
:10A6D00023690293E3680193A36800933146D4E9A8
:10A6E0000023284600F08CFEC7E7636903932369C3
:10A6F0000293E3680193A36800933146D4E90023F1
:10A70000284600F07DFEB8E708292DE9F84F80467D
:10A710000E4617461C463BD8002593F80C901D7337
:10A7200019461046FFF750FFDFF88CA0DFF88CB019
:10A73000AE422FD918F805205946204600F060FE99
:10A740000135082DF4D11949194DDFF874A02046C0
:10A7500000F056FE4FF0000B5E4522D918F80B2092
:10A760007E2A1CD8134BD15C11F0970F08BF2E2204
:10A770005146204600F044FE0BF1010BBBF1080FDF
:10A78000EAD1012221463846FFF700FF84F80C90F9
:10A79000BDE8F88F5146204600F032FED0E72E2269
:10A7A000E6E72946204600F02BFEE5E70D300200E3
:10A7B0000B30020065410200093002000330020044
:10A7C000043A02001FB50021039001AA44F20100DF
:10A7D000CDE9011100F004F805B05DF804FB0000BC
:10A7E00010B572B6FFF7BEFEFFF708FD0028FBD1DB
:10A7F000104B114C1149E41AE408240444F0010000
:10A80000FFF740FE0E4B1B68DB0700D500BE0D496D
:10A8100044F00200FFF736FEBFF34F8F0A490B4B9F
:10A82000CA6802F4E0621343CB60BFF34F8F00BFEE
:10A83000FDE700BF54430200944302009F30020032
:10A84000F0ED00E0AB30020000ED00E00400FA059E
:10A850004B1C30B5DB00044612F003009BB20DD157
:10A86000074D2A601A44074B1A60074B1870074BB4
:10A870001870074B1C80074B198030BD0720FCE780
:10A8800074280020702800206C2800207C280020DC
:10A89000782800207A2800202DE9F3472B4F3B88A9
:10A8A0008B4206460D4690464BD300240DF107001F
:10A8B0008DF8074000F09AFA254B26481A78264B67
:10A8C000008893F800C084455FFA8CF138BF4C1CB7
:10A8D000D2B238BFE4B2A2422DD01C781A78D1B2DD
:10A8E000904286BF0131C9B2002119709DF807005E
:10A8F00000F0A0FA4FF6FF739C4224D0DFF860907E
:10A90000D9F800204FEAC40A42F8348002EBC403AD
:10A91000A6B19DB1114B38881B682A4604FB003054
:10A92000314608F00BF8D9F80030534400209D80E0
:10A9300002B0BDE8F0874FF6FF74D7E7002098809B
:10A94000F6E70920F4E70420F2E700BF78280020AA
:10A950007C2800207A2800206C2800207028002005
:10A9600074280020F8B5114C114D264622782B781A
:10A970009A4200D1F8BD0F480F4A23781268078821
:10A980000E4802EBC301006852F83320898803FBAC
:10A99000070090470A4922780988D3B2914286BFBE
:10A9A0000133DBB200233370E0E700BF7C280020D6
:10A9B0006C280020782800207428002070280020AF
:10A9C0007A280020D0E90223D1E90201994208BF88
:10A9D00090422CBF012000207047000008B50B48B2
:10A9E00000F069FB0A4B0B49D3E900231218D1E9A7
:10A9F000000143F100038B4208BF824203D212F1EF
:10AA0000807243F100031046194608BD641B002004
:10AA1000882800200029002037B505460C460A4842
:10AA200001A900F09EFB60B10570446001A90648D1
:10AA300000F0C1FB18B1054800F042FB002003B054
:10AA400030BD0420FBE700BFEC280020641B002081
:10AA500073B5284B1E7804461EB90026304602B056
:10AA600070BD0028F9D0FFF7B9FFD4E9022399425D
:10AA700008BF904238D300230DF107008DF807304E
:10AA800000F0B4F923692BB94FF0FF324FF0FF33D8
:10AA9000C4E902239DF8070000F0CCF9D4E90530A1
:10AAA000984700250DF107008DF8075000F09EF93A
:10AAB0002169B9B1D4E90223581C08BFB2F1FF3FA4
:10AAC00005D0521843F10003C4E9022335469DF82E
:10AAD000070000F0AFF9002DBFD00748214600F075
:10AAE00056FFBBE70D46F2E7013308BFB2F1FF3F67
:10AAF000B3D0F2E790280020C830020013B5114B04
:10AB000011491868019008231048582200F0F4FAFF
:10AB1000044698B90E4A0F4801A900F0ADF9044661
:10AB200060B90C48012100F0A7FA01230A4A09483C
:10AB3000194600F003FA094B01221A70204602B0B0
:10AB400010BD00BFC230020094280020EC28002075
:10AB500031AC0100641B0020FFFF7F009028002023
:10AB600030B56AB103684FF0FF344FF0FF355A61DA
:10AB70004A1E5142C3E9024551411961002030BDCE
:10AB80000720FCE7F7B5054600240DF1070017463E
:10AB90000E468DF8074000F029F9D5E9022301336C
:10ABA00008BFB2F1FF3F07D1FFF718FF801941F14D
:10ABB0000001C5E9020101249DF8070000F03AF9FF
:10ABC0004CB12B69AF6103B12E6129460020FFF71C
:10ABD00023FF03B0F0BD2046FBE737B50546002450
:10ABE0000DF107008DF8074000F000F9D5E90223C8
:10ABF000013308BFB2F1FF3F06D04FF0FF324FF0F4
:10AC0000FF33C5E9022301249DF8070000F012F983
:10AC10002CB129460120FFF7FFFE03B030BD2046CE
:10AC2000FBE70000014800F046BA00BF641B0020AB
:10AC30002DE9F74F804600F028FA40B1634AD2E987
:10AC4000003113F1807341F10001C2E900310021AC
:10AC5000404600F02AFA38B15D4E336823B13068BF
:10AC6000FFF7F6FE002333600121404600F01DFA95
:10AC700020B1FFF7B3FE574BC3E900015648DFF898
:10AC8000509101A900F0A7FA4FF0FF364FF0FF37BF
:10AC900098B9DFF848A14E4F504600F08EFE0028CC
:10ACA00000F08780D0E90223591C08BFB2F1FF3FB2
:10ACB00034D1504600F07BFEEEE70378012B20D024
:10ACC000022B09D1DFF814A1504600F070FE0028D5
:10ACD00077D0C0E90267F7E753B94168D1E90223A9
:10ACE000013308BFB2F1FF3F02D03C4800F04FFEF5
:10ACF00001A9394800F09AFA01A9374800F06BFA27
:10AD0000C6E74168D9F80030994203D10023C9F859
:10AD10000030EDE7314800F053FEE9E7396891B1C2
:10AD20003968D1E902018B4208BF82422FD23B68C9
:10AD3000D3E90223013308BFB2F1FF3F03D03968E2
:10AD4000504600F024FE504600F031FED0E9026B80
:10AD50008146FFF743FE341A6BEB0105012C75F1B8
:10AD6000000319DBB4F5350F14D3FFF75BFF1C4A62
:10AD700002441C484FF49603002100F003F998B9EF
:10AD80003B6813B9404600F0D1F8C7F8009003B013
:10AD9000BDE8F08F3246ECE71248002100F07AF966
:10ADA0004846FFF755FE01E00D28F9D000233B602F
:10ADB00072E7074B1B68002BE9D1404600F0BAF858
:10ADC000E5E7094B01221A7092E700BF88280020AE
:10ADD0000829002000290020EC280020C8300200AB
:10ADE000FFFFB400641B00209028002070B5EFF333
:10ADF000108672B60C4A946801239CB993600B4B81
:10AE00000B4DD3F8801029401160C3F88050D3F85F
:10AE1000841051604FF0FF32C3F88420047006B9EB
:10AE200062B670BD0370FAE78438002000E100E0EC
:10AE3000FC06FFBD10B5084B9A685AB150B9EFF344
:10AE4000108172B6054A1C6814605C685460986092
:10AE500001B962B610BD00BF8438002000E100E0F7
:10AE60000346405882B028B100225A505B580193E3
:10AE7000019B012002B0704738B5244C437944F857
:10AE80002320234C234A121B234C04EBC303D20878
:10AE90001B79120433B142F002002049FFF7F2FAA5
:10AEA000082038BD03680D88C3F8085590F90430B0
:10AEB0008978002B4FEA4111ADBF03F1604303F0E5
:10AEC0000F03174D03F56143B9BFC9B2E954C9B2C5
:10AED00083F8001390F90430002B08DB01215D0991
:10AEE00003F01F0301FA03F30E4941F825304379BB
:10AEF00004EBC301012544F833000D7142F0030057
:10AF00000949FFF7BFFA0020CBE700BF1429002052
:10AF100054430200A44302000C290020D430020054
:10AF200014ED00E000E100E0F630020003680122C9
:10AF30001A607047036801225A607047F7B50468C9
:10AF40004FF480358D40C4F808530468C4F8485362
:10AF500001F15004A4000668A4B200273751345907
:10AF60000194019C046801F5A87122F07F4244F825
:10AF700021200268C2F8445313B10368C3F8045394
:10AF800003B0F0BD2DE9F34799464FF480380368CC
:10AF900008FA01F8C3F848830368C3F8088322F06D
:10AFA0007F4502680E46D2F8041502EB860206F1D0
:10AFB0005007D2F84035C2F84015BF000268BFB252
:10AFC0004FF0000A42F807A05B1AD259009223F012
:10AFD0007F43012B009A04460BD1264B4FF480602F
:10AFE00043F001039847236843F807A0DB59019316
:10AFF000019B2368D3F80475C3F84483EB1B23F04B
:10B000007F43012B06F5A876236819D1013543F853
:10B010002650184B4FF4806043F001039847236893
:10B02000D3F804359F4209D12368C3F844832368C9
:10B030000020C3F8048302B0BDE8F0870D20FAE7D2
:10B0400043F826502068D0F804156A1A013AC9F16D
:10B05000FF1322F07F4203F57F439342EED3002A91
:10B06000E2D1013540F826502368D3F804359942DF
:10B07000D9E700BF1031020002680223C2F844334E
:10B0800011B10268C2F80433704700684FF482714E
:10B09000FFF7E6BE4FF4803303FA01F10368C3F80B
:10B0A00048130368C3F808137047503189000068DB
:10B0B00089B2FFF7D5BE0368D3F8040570470000D6
:10B0C00090F90430002B09DB5A09012103F01F031A
:10B0D00001FA03F34032024941F82230704700BFC1
:10B0E00000E100E0024B034A1B681068184700BFEC
:10B0F000142900200C29002030B5054659B1B2FBB7
:10B10000F3F403FB1424A0B238B9C5E90010A86019
:10B11000AA81EB8130BD0E20FCE70920FAE782B05E
:10B1200050E8022FC188B2EB324F4FF0000317BF37
:10B1300092B241EA014142EA014104E04268B2EBC5
:10B14000324F08BF012340E80212002AE8D18DF8EF
:10B1500007309DF80730002B0CBF1120002002B0F3
:10B16000704737B550E8013F9DB2C48925448489B2
:10B17000A54228BF2D1B0489A54202BFBFF32F8F14
:10B18000002207E0C5EA030540E80154002CE9D19C
:10B190004FF001028DF803200193019B9DF80320DD
:10B1A0000B6002F0FF0322B10B880068184403B063
:10B1B00030BD1846FBE70A884B889A4209D150E80F
:10B1C000012FC2EA024240E80123002BF7D10120FF
:10B1D00070470020704737B550E8023F1FFAA3F5CB
:10B1E000C488A54202BFBFF32F8F00220DE0C4899F
:10B1F00025448489A54228BF2D1BC3EA054540E8A4
:10B200000254002CE8D14FF001028DF80320019385
:10B21000019B9DF803200B6002F0FF0322B14B88D5
:10B220000068184403B030BD1846FBE70A884B8815
:10B230009A4209D150E8022FC2EA224240E8022392
:10B24000002BF7D1012070470020704701F01F024A
:10B250004B090121914000EB830000F02AB801F076
:10B260001F0301229A404B0900EB8300D14300F0F9
:10B2700038B84B0901F01F0150F82300C84000F016
:10B280000100704710B5034653E8000F0A4643E833
:10B29000002494F0000FF7D110BD10B5034653E819
:10B2A000000F40EA010243E8002494F0000FF6D1B9
:10B2B00010BD10B5034653E8002F42EA010043E8F1
:10B2C000000494F0000FF6D110BD10B5034653E80A
:10B2D000000F00EA010243E8002494F0000FF6D1C9
:10B2E00010BD10B5034653E8002F02EA010043E801
:10B2F000000494F0000FF6D110BD10B5034653E8DA
:10B30000002F02EB010043E8000494F0000FF6D197
:10B3100010BD10B5034653E8002FA2EB010043E82F
:10B32000000494F0000FF6D110BD0121FFF7B5BF66
:10B330000121FFF7BEBF0021FFF7C7BF10B590B1D5
:10B34000D0E9012301689B1ADBB20A60013BDBB242
:10B35000FF2B026802D10020107110BD11684C1C37
:10B3600014600B70F2E70E20F7E737B504460025AE
:10B370000DF107008DF80750FFF738FD226861686E
:10B3800013688B4210D9591E116013F8015C228A90
:10B39000E36802FB05352268A36811685B1A11791E
:10B3A000DBB2994238BF13719DF80700FFF742FDE9
:10B3B000284603B030BD37B5054600230DF1070020
:10B3C0000C468DF80730FFF711FD2A681368591CE9
:10B3D0001160E968641A298AB4FBF1F41C709DF8C5
:10B3E0000700FFF727FD03B030BD10B582680446A3
:10B3F0002AB143690168006998470023A36010BD22
:10B400000EB403B5039921B104AB01AA019300F076
:10B4100077F802B05DF804EB03B070470A2938B53D
:10B4200004460D4602D10D21FFF7F8FFA3682268FC
:10B43000591CA160D554D4E901329A4204D3204664
:10B44000BDE83840FFF7D1BF38BD00002DE9F84F07
:10B450009846DDE90A43154682460F460A464FF0F4
:10B460000109AA420FD2C14538BFC14613F0010BF2
:10B4700001D16CB900240126B8F1010F1BD908F1E4
:10B48000FF386E43F8E709F10109B2FBF5F2E8E78E
:10B490009B070ED5B8F1000F0CBF30262026A14522
:10B4A000E9D2013C31465046FFF7B8FF002CF6D1F7
:10B4B000E0E72026F3E7B7FBF6F39D42E1D9DFF89A
:10B4C0003C80B7FBF6F3504618F8031006FB1377E1
:10B4D000FFF7A4FF3346AB42B6FBF5F6F1D2BBF162
:10B4E000000F02D00CB1A14501D3BDE8F88F202197
:10B4F0005046013CFFF792FFF4E700BF163102000F
:10B500002DE9F74F054617468846002900F042818D
:10B5100018F8011B49B92B7B002B00F03B81284612
:10B5200003B0BDE8F04FFFF760BF252940F0B780BA
:10B53000002698F800302D2B424608F1010823D050
:10B54000302B24D02B2B25D000242A2B02F10101F3
:10B5500023D13B681A1D3A601B680A461C441378C5
:10B560002E2B26D101324FF0000A104610F8011B95
:10B57000A1F1300CBCF1090F1DD80A2303FB0A13FB
:10B58000A3F1300A0246F0E746F00106D1E746F0A3
:10B590000206CEE746F00406CBE711F8013CA3F122
:10B5A00030000928DBD80A2202FB0434303C0A466A
:10B5B000CBE74FF0000A12F8011B01F0FB006828EE
:10B5C0009046F8D0782909D86F290CD8632962D021
:10B5D00022D8252963D0582900F0888098F80030B7
:10B5E000002B95D197E770390829F7D801A353F8B4
:10B5F00021F000BF6FB70100DDB50100DDB501002E
:10B60000FDB60100DDB50100DBB60100DDB50100CE
:10B61000DDB50100EDB60100642901D06929DDD155
:10B620003A68111D3960D2F8009089EAE972A2EBFC
:10B63000E9724FF0010B092A35DCD34538BFD346F8
:10B640002CB1B9F1000F01DB720700D5013CB30743
:10B6500002D5BAF1000F03D0F00701D44CBB00248F
:10B66000B9F1000F2DDAC9F100092D212846FFF7A5
:10B67000D5FE06F00302022A04D1BAF1000F01D16F
:10B680001CBB0024CDE9004653460A224946284601
:10B69000FFF7DCFEA2E73B681A1D3A6019782846DE
:10B6A000FFF7BCFE9AE70A230BF1010BB2FBF3F2A2
:10B6B000C1E7A345D4D220212846013CFFF7AEFEC6
:10B6C000CCE77107D5D52B21D0E7A345DAD23021BD
:10B6D0002846013CFFF7A2FED2E73968CDE90046D3
:10B6E0000A1D3A6053460A220968D0E739680A1DE4
:10B6F0003A60CDE9004653461022F5E73B681A1D33
:10B700003A6016F00106D3F8009028D1B9F1000F85
:10B7100003D0484607F030F90646B44200D904BBCE
:10B7200009F1FF3919F8011F00293FF457AF2846E6
:10B73000FFF774FEF6E728460136FFF76FFE19F8AB
:10B7400006100029F7D1A642BFF448AF002C3FF401
:10B7500045AF20212846013CFFF760FEF3E70026B5
:10B76000EDE720212846013CFFF758FED5E73B686E
:10B770001A1D3A60302128461C68FFF74FFE7821D9
:10B780002846FFF74BFE00220823CDE90032214670
:10B7900010227CE703B0BDE8F08F00BF2DE9F84F21
:10B7A000B0F806A04579D2F800B09DF828900AFBC1
:10B7B00005F5043D88460BEB0301A94203F104049F
:10B7C00088BFA5EB030BB4FBFAF607460AFB164449
:10B7D000C2F800B04EB9AAEB04055D4528BF5D462E
:10B7E000BBF1000F04D1BDE8F88F3F68013EF1E7DF
:10B7F000043408EB06003C442A46B9F1000F0DD092
:10B800002146ABEB050B07F099F8DA452E443F686B
:10B8100055464FF0000428BF5D46E1E7014620464B
:10B82000EFE7FFF78BBDF8B546790146721E054676
:10B83000002393422D6803D30024A64202D8F8BD0A
:10B840000133F6E70F682846FFF7B5FD01343946A6
:10B85000F3E72DE9F843CD1C068A0746FFF785FD7F
:10B86000043E35440446B5FBF6F5F0B14FF4807361
:10B87000EDB28380C680013D076081464FF000082D
:10B88000A84512D23846FFF770FD064648B16379E5
:10B890000133637108F10108C9F8000007608146AF
:10B8A000EEE72046FFF7BFFF34462046BDE8F883A9
:10B8B00001210430FFF721BD10B5012104460430F9
:10B8C000FFF727FD10F0FF0F04D12046BDE8104020
:10B8D000FFF7A9BF10BD1FB503920022009203AA73
:10B8E000FFF75CFF05B05DF804FB1FB50392012272
:10B8F000009203AAFFF752FF05B05DF804FB41DF99
:10B9000070470000064B10B500241C70054B1C60EE
:10B91000BFF35F8F0449054800F024F8204610BDAE
:10B92000202900202429002030310200182900207D
:10B9300008B502F029F918B1BDE80840FFF7DFBFEC
:10B9400020BF40BF20BF08BD82680023936082688B
:10B950001361826853618268D36082685360826831
:10B960001360704701600B6843604A68934204BFEC
:10B97000002343607047436843B1026891680B44F9
:10B9800043605268934204BF00234360704770B520
:10B99000446806460D46206818B1B36829469847A2
:10B9A00018B923682B60256070BD2468F3E74368ED
:10B9B000186808B102681A607047436818687047D1
:10B9C0004368186800B97047884203D102681A605A
:10B9D0000120704703460068F4E7000010B50D49E8
:10B9E000A1F59472914201D800200FE08C1AE30F68
:10B9F00003EBE4035B1002EBC30452F833308342E1
:10BA000005D802D204F10802ECE7606810BD2146B7
:10BA1000E8E700BF3C36020008B5FFF7DFFF024B46
:10BA2000002808BF184608BDFF340200BFF34F8F3F
:10BA30000549064BCA6802F4E0621343CB60BFF3CA
:10BA40004F8F00BFFDE700BF00ED00E00400FA05E6
:10BA5000044B1868421C04BF034B1878831F5842DC
:10BA60005841704730010010E00F00F0074B1B7881
:10BA7000062B09D1064B1B68C3F30313033B042BAE
:10BA800002D8044AD05C704700207047E00F00F0F5
:10BA9000E80F00F04B360200074B1868421C04BF49
:10BAA000064B1878062804D0A0F10A0358425841E2
:10BAB00070470120704700BF30010010E00F00F018
:10BAC000024AD2F80034002BFBD0704700E001405E
:10BAD00010B5FFF7BDFF28B18C4B8D4A1B68C3F32F
:10BAE00004231360FFF7C2FF10B18A4B8A4A1A6021
:10BAF000FFF7D2FF28B1894B894A1B68C3F3423351
:10BB00001360FFF7B3FF20B1864AD36823F0807338
:10BB1000D360FFF7C1FF40B14FF080430022C3F86C
:10BB20000C21C3F81021C3F83825FFF79FFF10B18F
:10BB30007D4B03221A60FFF799FF40B17B4B052232
:10BB40001A6001229A6700229A603F225A60784B5D
:10BB50001A68511C0BBF774B774B1A781B6802BFD2
:10BB600008331B68C3F30313062A4ED1033B042B8F
:10BB700003D8724AD35C002B49D04FF08052704BEF
:10BB8000D2F80414C3F82015D2F80814C3F8241509
:10BB9000D2F80C14C3F82815D2F81014C3F82C15D9
:10BBA000D2F81414C3F83015D2F81814C3F83415A9
:10BBB000D2F81C14C3F84015D2F82014C3F8441569
:10BBC000D2F82414C3F84815D2F82814C3F84C1539
:10BBD000D2F82C14C3F85015D2F83014C3F8541509
:10BBE000D2F83414C3F86015D2F83814C3F86415C9
:10BBF000D2F83C14C3F86815D2F84014C3F86C1599
:10BC0000D2F84424C3F8702501E00A2AB5D0FFF722
:10BC10001FFF28B14B4B4C4A1B6803F04F031360C6
:10BC2000FFF73AFF48B14FF08043D3F80024D20722
:10BC300044BF6FF00102C3F800243D4B1B68062B84
:10BC40000CD13D4B1B68033B042B02D83F4AD35C0D
:10BC500083B13F4A136843F480631360344B1B681D
:10BC60000A2B07D1344B1B6823B1374A136843F0C2
:10BC70000F0313602E4B1B68062B0FD12E4B1B6836
:10BC8000033B042B02D8334AD35C3BB14FF0102363
:10BC9000D3F808224FF08043C3F858254FF0102303
:10BCA000D3F80022002A03DBD3F80432002B17DA82
:10BCB00029490123C1F80435FFF702FF4FF0102096
:10BCC0001524C0F80042FFF7FBFEC0F80442FFF75E
:10BCD000F7FE0023C1F80435FFF7F2FEFFF7A6FEDA
:10BCE0001E4C2368DB070CD51B490123C1F8043522
:10BCF000FFF7E6FE00202060FFF7E2FEC1F8040532
:10BD0000EAE7174B174A1A6010BD00BF2403001062
:10BD10004035014074C007400DF0ADBA4402001038
:10BD20003C050040F0ED00E0A0050040105600404A
:10BD300030010010E00F00F0340100103C3602002A
:10BD400000C0004058020010E40E004041360200DE
:10BD50003C1700404636020000E001400C12001083
:10BD60006C1B00200090D00338B5074C051E04F171
:10BD7000080318BF1C4623682BB11A6822605B6851
:10BD800028469847F7E738BD3029002020B9054BF1
:10BD900001225A70FFF7E8BF012802D1014A9070D2
:10BDA000F8E770472829002020B9034B01225A7078
:10BDB000FFF7DABF704700BF2829002038B50E4CC6
:10BDC0002378B3B90D486360A3602361E36000F09A
:10BDD000E5F8054601F0D8FE08B900F0EBF80123BC
:10BDE0002370074BD3F800340BB10123A37028460E
:10BDF00038BD8525F5E700BF282900208DBD01004D
:10BE00000000014037B50D4C00230DF107008DF8FF
:10BE10000730FEF7EBFFE368013BE360E36833B90B
:10BE2000074BD3F8005415B900F0D6F8A5709DF86B
:10BE30000700FEF7FFFF03B030BD00BF2829002038
:10BE400000000140012813B50CD0032820D038B9D8
:10BE5000124B0122C3F88020BFF34F8FBFF36F8FC7
:10BE600002B010BD0E4C00230DF107008DF8073015
:10BE7000FEF7BCFF23780BB9FFF7A0FFE3689DF83E
:10BE800007000133E3600123A370FEF7D3FFE7E768
:10BE900000F090F8FFF7B6FFE2E700BF00E100E036
:10BEA000282900201FB503788DF8003043680193DE
:10BEB00083688DF80830C368054A0393054B6846CC
:10BEC00053F8213052F82110984705B05DF804FB73
:10BED0003C290020402900201FB503788DF8003050
:10BEE0004368019383688DF80830C368054A03935B
:10BEF000054B684653F8213052F82110984705B099
:10BF00005DF804FB3C29002040290020F0B5194BC6
:10BF100090F800C091F81DE043F82C20164B16460F
:10BF20000A6943F82C20154B03F80CE00C46074631
:10BF30000FCC89B06D460FC594E80F0085E80F005F
:10BF4000CDF810C0BEF1000F09D0002E0C4A694692
:10BF500008BF3246381D00F071FC09B0F0BD002E5C
:10BF6000084A694608BF324607F10C0000F048FA5B
:10BF7000F3E700BF402900203C2900209038002032
:10BF8000A5BE0100D9BE010000F18040002382B0AF
:10BF9000036003680193019B02B07047044B0246A3
:10BFA000187918B91A6001229A8070478520704765
:10BFB00044290020074B1A68D20704D4C02283F812
:10BFC000002301221A604FF080430122C3F8182594
:10BFD000704700BF00E100E04FF0804208B5022347
:10BFE000C2F808334FF48270FFF7CEFF034B0121F4
:10BFF0001960D2F81834DB03FBD408BD0C000040F4
:10C0000010B5124B1B6873B14FF48070FFF7BCFF83
:10C010004FF080430122C3F808230D4B587910B923
:10C020005A711B6898470B4B1B6873B14FF48270B1
:10C03000FFF7AAFF4FF080430222C3F80823044B06
:10C04000BDE810401B680120184710BD00010040EA
:10C05000442900200401004000F1804000F5C04068
:10C06000002382B0036003680193019B02B0704714
:10C07000800000F1A040D0F8002722F44032C0F840
:10C080000027D0F8003743EA0143C0F80037704773
:10C090002DE9F74F00244E4D01944FF48072012199
:10C0A00002F1804303F5C04390B21B68012B06D117
:10C0B000D5F804330B4202D0FFF7CEFF0C43043215
:10C0C000B2F5907F4FEA4101EAD1424B1B68012B48
:10C0D0000CD14FF4BE70FFF7BFFF4FF0A04344F008
:10C0E0000044D3F820250192C3F8202514F0FF0F57
:10C0F0001AD0394F00250126344210D0AB0003F18D
:10C10000804303F5C043D3F81005D3F8101557F852
:10C11000253023B1C1F30141C0F304209847013514
:10C12000082D4FEA4606E7D1002C48DA2A4D4FF099
:10C13000A0482A4E4FF00009012716F9013B5A1C6E
:10C1400031D0C3F3C20202A90A44DCB212F8042CB3
:10C1500003F03F0A03F0070307FA03F31A4222D061
:10C160000AF5E073504658F82330C3F3014BBBF196
:10C17000020F0CBF03210221FFF77AFF07FA0AF32F
:10C18000C8F8203505EB0A0393F9303055F8233011
:10C190004BB1A109032904D0BBF1020F12D101292F
:10C1A00001D15046984709F10109B9F1040FC4D1F2
:10C1B000D8F820350193C8F82035002BB9D103B049
:10C1C000BDE8F08FBBF1030FEDD10229E8E700BF16
:10C1D000006000407C6100404C2900209C29002028
:10C1E000014B1B68184700BFA82900200E4B98423E
:10C1F00037B50C4602D0002003B030BD00230DF14E
:10C2000007008DF80730FEF7F1FD084B1D7915B9D1
:10C2100001221C601A719DF80700FEF70BFE002D2D
:10C22000E9D01120E8E700BF00200040A829002045
:10C23000034B984201BF034B00221A601A717047EA
:10C2400000200040A82900200023435082B043581A
:10C250000193019B02B070470A4610B54FF48E71EE
:10C26000FFF7F2FF136A9168C95C136A0133136226
:10C27000C0F81C1510BD10B58B690A464FF48471C7
:10C2800023B9FFF7E1FFD0F8183510BDFFF7DCFF49
:10C29000536AD168D0F81805C854536A0133536201
:10C2A000F3E700001FB501238DF80030044BCDE902
:10C2B0000110D3E900126846904705B05DF804FB11
:10C2C000B029002030B54C48D0F8043313F4007F77
:10C2D00085B005464DD0D0F82431002B49D04FF41D
:10C2E0009271FFF7B1FF4FF40173C0F80833434B6D
:10C2F00093F829200AB9012242603F4902228DF8B1
:10C300000020D1F88024C1F8802403929A69029217
:10C31000DA6801920022C3E906226846D3E90012D6
:10C3200090473548D0F81C315BB134494A690B6AF3
:10C330009A420A464BD991F82830002B47D1FFF793
:10C340008BFF2D48D0F844318BB14FF4A271FFF729
:10C350007BFF2A4B93F829200AB1012202609A69D7
:10C360002AB10022586AD9689A61FFF79BFF05B08D
:10C3700030BDD5F804335B07D3D5D5F80831002B91
:10C38000CFD01E4C1C482146FFF775FF636AA26997
:10C390009A422346C5D1E26952B12369E168E3605C
:10C3A0000023606AA261E3616362FFF77BFFB8E785
:10C3B00094F829200AB901226A600F4A4FF40171EA
:10C3C000C2F808130022586AD9689A61EDE70A4852
:10C3D0004FF48E71FFF738FF5369002BB1D05169CC
:10C3E0000291002391688DF80030019153616846F5
:10C3F000D2E900139847A4E700200040B0290020AC
:10C400002DE9F8435B4B067991462C2202FB06325C
:10C41000054692F82A200C469846002A40F0A5804E
:10C4200055490068FFF7E2FE0746002840F09F806C
:10C430002268501C0BD0012393404FF0A0420321EF
:10C44000C2F80835236803F5E07342F823106368E7
:10C45000591C1FBF03F5E0734FF0A042002142F8C2
:10C4600023102B68A269C3F82425217D637D2A68E7
:10C470000B43C2F86C35D4E900122B68C3F81425BD
:10C48000C3F80C15237D012B1FD1A3685A1C1FBFB5
:10C490004FF0A04203F5E073002142F82310E26858
:10C4A000531C0BD0012393404FF0A0420321C2F84C
:10C4B0000835E36803F5E07342F82310D4E902126B
:10C4C0002B68C3F80825C3F810152C23734308EB19
:10C4D0000302C2F80490226948F80320B9F1000F62
:10C4E00030D02868247F4FF48E71FFF7ADFE4FF4F3
:10C4F000A2712868FFF7A8FE2B68204AC3F804231E
:10C500002A68110B42F30732002AAEBF02F16042E3
:10C510001B4A01F00F014FEA4413DBB2AABF02F538
:10C520006142535482F800332A68130B42F30732F6
:10C53000002A07DB03F01F0101238B405209114938
:10C5400041F822302B680422C3F800252C2303FB7A
:10C5500006830022C3E9062283F829205A610122BA
:10C5600083F82A203846BDE8F8830827FAE7112720
:10C57000F8E700BFB0290020C5C20100800002001A
:10C5800014ED00E000E100E0F8B503680479324DF5
:10C590000022C3F800252C2303FB04535B68B3B1CE
:10C5A00003682E4AC3F8082303681A0B43F30733C2
:10C5B000002B0CDB02F01F015B0901228A402033B3
:10C5C000274941F82320BFF34F8FBFF36F8F0368D4
:10C5D0004FF0FF3CD3F80C75D3F81465D3F8082559
:10C5E000D3F81015C3F814C5C3F80CC50368674524
:10C5F000C3F808C518BF07F5E077C3F810C51EBF1C
:10C600004FF0A0434FF0020C43F827C0771C1FBF28
:10C610004FF0A04306F5E076022743F826704E1C43
:10C620001FBF01F5E0714FF0A043022643F82160DF
:10C63000531C1FBF4FF0A04302F5E072022143F8E4
:10C6400022100068FFF7F4FD2C2303FB04540023A1
:10C6500084F82A306360F8BDB0290020840202000B
:10C6600000E100E02DE9F047214F90F804904FF0F1
:10C670002C0808FB097405466669002E35D16261F5
:10C68000A160266284F8286000684FF48E71FFF77D
:10C69000DBFD2B6801229A6028682146FFF7DCFD4C
:10C6A0006368A0468BB92868D4F814A0236A9A4519
:10C6B00011D82A68D2F81C31002BFBD00123D3609B
:10C6C0002C2303FB097300225A613046BDE8F08732
:10C6D00094F828303BB9D0F81C31002BF8D04146F3
:10C6E000FFF7BAFDE2E70F26EAE71126EDE700BF04
:10C6F000B02900200023435082B043580193019B8E
:10C7000002B070471FB501238DF80030044BCDE90E
:10C710000110D3E900126846904705B05DF804FBAC
:10C72000DC2900207FB5434AD2F82461002E60D076
:10C7300010464FF49271FFF7DDFF02238DF80030B1
:10C74000D2F88034C2F880340393D2F83C35029397
:10C75000394BDA6801920022C3E906226846D3E920
:10C76000001290473348D0F8443173B14FF4A271AE
:10C77000FFF7C0FF304B9A693AB10022C3E90622A5
:10C78000D968D0F83C05FFF7BDFF2A48D0F8203122
:10C79000ABB14FF49071FFF7ADFF0123C360264B9F
:10C7A0005A6962B1D0F84C150291002299688DF84F
:10C7B000002001915A616846D3E9001290471D4854
:10C7C000D0F858319BB14FF4AC71FFF793FF1A4B7F
:10C7D0005A6962B1D0F84C150291002299688DF81F
:10C7E000002001915A616846D3E90012904704B0D5
:10C7F00070BDD2F81031002BB4D04FF488711046C0
:10C80000FFF778FF0C4BD2F83C0599698842A9D113
:10C81000DC69D96864B1D2F8005225F02005C2F86D
:10C8200000521A699C61DA60DE61FFF76BFF99E7DD
:10C830009C61FAE700200040DC2900202DE9F84344
:10C84000614B06799146242202FB0632054692F896
:10C8500020200C469846002A40F0B2805B490068D0
:10C86000FFF7C4FC0746002840F0AC802268501C4B
:10C870000BD0012393404FF0A0420321C2F80835AA
:10C88000236803F5E07342F823106368591C1FBF47
:10C8900003F5E0734FF0A042002142F823102B680B
:10C8A000A269C3F82425217D637D2A680B43C2F861
:10C8B0006C35D4E900212B68C3F80C25C3F8141596
:10C8C000237D012B1FD1A3685A1C1FBF4FF0A0422C
:10C8D00003F5E073002142F82310E268531C0BD0EB
:10C8E000012393404FF0A0420321C2F80835E368CA
:10C8F00003F5E07342F82310D4E902122B68C3F861
:10C900000825C3F810152423734308EB0302C2F86B
:10C910000490226948F80320B9F1000F3FD028683D
:10C92000227F4FF48871FFF7E5FE28684FF490717D
:10C93000FFF7E0FE28684FF49271FFF7DBFE2868EE
:10C940004FF4A271FFF7D6FE4FF4AC712868FFF7E1
:10C95000D1FE2B681E49C3F804132B68190B43F34F
:10C960000733002BAEBF03F160431A4B01F00F01F8
:10C970004FEA4212D2B2AABF03F561435A5483F878
:10C9800000232A68130B42F30732002A07DB03F067
:10C990001F0101238B4052090F4941F822302B68B7
:10C9A0000822C3F80025242303FB06830022C3E9E1
:10C9B00006225A61012283F820203846BDE8F88318
:10C9C0000827FAE71127F8E7DC29002025C701002E
:10C9D0001003420014ED00E000E100E0F8B5444D22
:10C9E0000479242303FB045302465B680068ABB15F
:10C9F000404BC0F808331368190B43F30733002B7F
:10CA00000CDB01F01F065B090121B14020333A4ED7
:10CA100046F82310BFF34F8FBFF36F8FD0F800326B
:10CA200023F02003C0F80032242303FB04539B6946
:10CA30002BB14FF4A271FFF75DFE012343604FF469
:10CA4000AC71FFF757FE0123C360242303FB04539B
:10CA5000D0F858110029FBD0996919B1D0F84411C8
:10CA60000029F5D00023C0F8003513684FF0FF3ED1
:10CA7000D3F80CC5D3F81475D3F80815D3F810659E
:10CA8000C3F80CE5C3F814E51368F445C3F808E5EA
:10CA900018BF0CF5E07CC3F810E51EBF4FF0A043B3
:10CAA000022243F82C207B1C1FBF4FF0A04307F548
:10CAB000E077022243F82720721C1FBF06F5E076BC
:10CAC0004FF0A043022243F826204B1C1FBF4FF01B
:10CAD000A04301F5E071022243F82120FFF7A8FBF3
:10CAE000242303FB0454002384F820306360F8BD42
:10CAF000DC2900201003420000E100E001F0604367
:10CB0000B3F1005F2DE9F04105463BD11F4B07799A
:10CB1000242606FB073698467469002C34D17261CE
:10CB2000B16000684FF49071FFF7E4FD4FF4AC7111
:10CB30002868FFF7DFFD2B687269B168C3F84415F8
:10CB4000C3F848252B6801229A607368BBB92B682B
:10CB5000D3F82021D3F858411AB9002CF8D00F246B
:10CB600008E0002CFBD10122DA602A68D2F85831A3
:10CB7000002BFBD0242303FB078700237B61204687
:10CB8000BDE8F0811024FAE71124F8E7DC29002041
:10CB90000369C1688B429DBF8268D21802F1FF32DF
:10CBA00003F1FF3394BF501A581A70472DE9F84328
:10CBB000D0E902940546A9EB04084068904520445A
:10CBC0000F46144404D905F0B9FEEC60BDE8F883C3
:10CBD0004246A4EB090405F0B1FE6868224607EB63
:10CBE0000801F0E72DE9F843C5680646894617466F
:10CBF0004FF000083469B3687068A54228BFE41894
:10CC0000013C621B5C1BBC4228BF3C46944228BFCF
:10CC1000144649462844224605F090FEB368254450
:10CC2000AB4208BF00253F1BA044A144F560E1D101
:10CC30004046BDE8F883000010B5114C114AA261CE
:10CC40000223C4E90433104BE361A2644FF4007380
:10CC50000E4A0F492362E26400231022E01DA36202
:10CC60006362E362A3656365E365226505F07CFEAC
:10CC70000849204605F078FE2023A37110BD00BFAF
:10CC80009438002072360200102A0020002A00206A
:10CC90007B3602007F360200F8B5184C182300FBE3
:10CCA000033503FB00402544C46A012C0F46164699
:10CCB0000FD0022C1AD0F4B92846FFF769FF86423C
:10CCC00005D8324639462846FFF770FF34462046DD
:10CCD000F8BD2846FFF75CFF8642344628BF04466D
:10CCE000224639462846FFF761FFF0E72846BDE8AF
:10CCF000F840FFF777BF0024E9E700BF9438002031
:10CD0000FFF79ABF6DDF704779DF70477DDF7047AF
:10CD100064DF70472DE9F04F85B000250E9CBDF80B
:10CD20003CB0B4F800A00191074690461E46A946C3
:10CD30003A884A450DDC45B12388013BA3EB0A0341
:10CD40009BB2FF2B3AD806F80A30002005B0BDE8A8
:10CD5000F08F7A6852F82900039000220DF10B0140
:10CD600003A8FFF7D5FF0028F0D19DF80B2042451E
:10CD700021D12288002D14BF0020022002EB0801DF
:10CD8000014459451ADC3DB9013292B2019B22801F
:10CD9000B35422880132228022880DF10B013244E3
:10CDA00003A8FFF7B5FF0028D0D121889DF80B20FC
:10CDB0000A442280012509F10109B9E70C20C5E7E1
:10CDC0002DE9F341089FBDF824801546CDE9007890
:10CDD000022204461E46FFF79DFF50B9334610223B
:10CDE00029462046CDE9087802B0BDE8F041FFF7BA
:10CDF00091BF02B0BDE8F0812DE9F04F0023178804
:10CE0000138090F82D3085B006460D46144653B376
:10CE1000082F01D80C2027E102A8FFF773FF002894
:10CE200040F0228123880822EA54238801339BB2F0
:10CE30001B222380EA542088013080B22080062201
:10CE40000DF10901284405F079FD23889DF808209B
:10CE500006339BB212F0FE0218BF01222380EA546F
:10CE6000238801332380B378FBB123880433BB428A
:10CE7000D0D802A8FFF748FF002840F0F5802388AB
:10CE80000322EA54238801339BB219222380EA54F7
:10CE90002388BDF8082001339BB2E9182380EA54A7
:10CEA000120A4A70238802332380F2789AB12388C9
:10CEB000D91CB942AED80221E954238801339BB270
:10CEC00001212380E95423880B449BB22380EA5438
:10CED00023880B4423807268AAB12388D91CB942E5
:10CEE00098D8022192F90020E954238801339BB29B
:10CEF0000A212380E954238801339BB22380EA541A
:10CF00002388013323803389002B40F0A180338AAA
:10CF10005BB1CDE900472B460722032106F1100043
:10CF2000FFF74EFF002840F09F80338B5BB1CDE9C7
:10CF300000472B461522142106F11800FFF740FF89
:10CF4000002840F09180326A002A40F09080D6F8A4
:10CF50002480B8F1000F30D0B8F804302188981C34
:10CF60008A1C0244BA423FF655AFFE283FF652AF44
:10CF700003336B54238801339BB2FF222380EA548E
:10CF8000238801339BB22380B8F80020EA54E918C3
:10CF9000120A4A702088023080B22080B8F804203B
:10CFA0005AB1D8F8081000296BD0284405F0C6FC07
:10CFB0002388B8F804201344238096F82C30002BE3
:10CFC00040F09A80307800284ED03388012B58D01A
:10CFD000228802F1020CBC453FF61CAF012805D1A6
:10CFE0007378023313449F42FFF414AF023FBF1A19
:10CFF000BFB202A905EB0C00ADF80870FFF786FE82
:10D0000090BB3178BDF80830022900F0BA80727800
:10D010009A4202D3BB4240F2B280012940F0B38071
:10D02000974293B2C0F0AF80ADF808300821BDF848
:10D030000830FE2B3FF6EEAE22880133AB54228837
:10D04000013292B22280A9542288134423800BE03B
:10D05000CDE900472B460622022106F10800FFF722
:10D06000AFFE00283FF453AF05B0BDE8F08FB4F831
:10D0700000C00CF10603BB423FF6CCAE1188052977
:10D0800001D80720F0E76FF4486E01EB0E039BB266
:10D090004FF27D3E7345F4D95388052BF1D96FF4D7
:10D0A0004860181880B27045EBD94FF6FF70814286
:10D0B00003D0834201D09942E3D8052305F80C3010
:10D0C000238801339BB212212380E9542388013342
:10D0D0009BB223801188E954E818090A417023881B
:10D0E00002339BB223805288EA54E918120A4A702C
:10D0F0002388023323802AE7B36A002BC1D04FF084
:10D1000000094FF00C0A4FF0160B96F82C305FFA1E
:10D1100089F293427FF656AFB16A0AFB02F201EB45
:10D120000208B8F80430981CFE283FF673AE208839
:10D1300003332B54238801339BB2238005F803B0BB
:10D14000238801339BB223808A5AEA54E918120AD1
:10D150004A702088023080B22080B8F804205AB18A
:10D16000D8F8081000298CD0284405F0E7FB238864
:10D17000B8F804201344238009F10109C5E7092107
:10D1800055E7BB42FBD9ADF808704FE775DF704734
:10D1900076DF70477ADF70477BDF7047034B1A8872
:10D1A00082420CBF18460020704700BF2C2C002084
:10D1B000024B9B6903B11847704700BF102C002039
:10D1C00073B585B22846FFF7E9FF044670B1164EE5
:10D1D000027A337B9A420BD200F10A012846FFF70C
:10D1E000D5FFE8B1112801D0FFF7E2FF02B070BD12
:10D1F00000230372337C43B13B212846FFF7C8FF6D
:10D2000030F0080301D0FFF7D3FF7369002BEDD096
:10D2100000228DF80420ADF8065001A89847E5E7F4
:10D22000237A01332372E1E7102C002013B50B465B
:10D23000497A02460E4869B9D0E901101C7A002CDF
:10D2400018BF01465868FDF79DFC08B1FFF7B0FF15
:10D2500002B010BD002119724369002BF8D00121E2
:10D260008DF80410ADF8062001A89847F0E700BF3C
:10D27000102C00204B8802889A4213D842889A4288
:10D2800010D380888A8840F2F313984294BF031A1F
:10D29000C31A934206D800F2F310904234BF002024
:10D2A000012070470020704770B50388122B01469B
:10D2B00059D004D8102B1ED0112B44D070BD502B48
:10D2C000FCD12F4BC288DB899A42F7D1038A022B0B
:10D2D000F4D186883046FFF761FF05460028EDD07F
:10D2E00001F1120000F035F938BB6868FDF775FCF4
:10D2F0000028E3D009E0C37B012BDFD14FF6FF709C
:10D30000FFF74CFF054620B90420BDE87040FFF749
:10D310004FBF8E881B4A0680002303721368C0F833
:10D320000A305368C0F80E3010310A30FFF7A2FF00
:10D33000134B6872DB89002BC0D129463046BDE80B
:10D340007040FFF773BF8088FFF728FF044600286E
:10D35000B4D04068FDF741FC08B1FFF729FF4FF654
:10D36000FF732380AAE786883046FFF717FF05463C
:10D370000028A3D008310A30FFF77CFF6872DCE791
:10D38000102C0020402C0020F8B5064648B3054676
:10D390000FCD154F3C460FC495E8070084E8070001
:10D3A0003068124C3C60B0B1FFF7F4FEC0B932688F
:10D3B00013682360536863600D480E4A4FF6FF738D
:10D3C00003800D4B40F8043F0021FDF7C9FB002806
:10D3D00018BF032004E02046FFF7DEFE0028EBD054
:10D3E000F8BD0E20FCE700BF102C0020402C0020D0
:10D3F0002C2C0020C1D10100482C00200AB1FDF7DF
:10D4000025BFFDF72CBF73B50191019C06466CB199
:10D4100000252C46294601A8FDF72BFF18B106EB85
:10D42000440301349D800135142DF3D1304634601E
:10D4300002B070BD2DE9F04303888488103B8DB0A5
:10D440000A2B1ED8DFE803F006361D1D1D1D1D1D0D
:10D450001D573B002C4DAB68DB4300936968684661
:10D46000FDF73FFF009901A8FFF7CDFF0DF1080878
:10D470000027019B9F4207D3132C12D90420FDF7EC
:10D48000A1F90DB0BDE8F08338F8029B0026013603
:10D49000494605EB8600FDF7E2FE1E2EF7D1013767
:10D4A000E7E721461948FDF7D1FE19482146FDF767
:10D4B000CDFEE6E715482146FDF7D1FEE1E7027A09
:10D4C00014483F2A4FEA1215214694BF0022012238
:10D4D000FFF794FF022D94BF002201220E4821463F
:10D4E000FFF78CFF012D0D4894BF00220122214639
:10D4F000FFF784FFC5E7037A002BC2D1427A0548C3
:10D50000C2F3C0022146F3E7682C0020702C0020F3
:10D510006C2C0020802C00207C2C0020782C0020FB
:10D52000AADF7047ABDF7047002301380B70042877
:10D5300006D8DFE800F00306080A0C0011230B7080
:10D5400070472123FBE73123F9E71223F7E7222372
:10D55000F5E7007800F0010070470B7803704B7816
:10D5600043700220704738B5044608460D4605F062
:10D5700003FA6560208038BDF0B58B7891B0012B3F
:10D580000C4638BF01238DF80E3005460B88ADF8E8
:10D590000C30002116466846032205F0DDF9607C58
:10D5A0006946FFF7C1FFA07C0DF10101FFF7BCFF49
:10D5B000E27B237B217D43EAC203227C43EA021300
:10D5C0009DF80220002922F0190203F0190314BF6C
:10D5D00002210121134361F342031C22002109A807
:10D5E0008DF8023005F0B8F9637B13F0300F15D0D9
:10D5F00002AF03220021384605F0AEF9E07C0DF1C0
:10D600000901FFF791FF11238DF808309DF80A30CA
:10D610000E97012262F342038DF80A30637B8DF886
:10D6200024301422A37B8DF82530002104A805F0B6
:10D6300093F903AB0493A388ADF81C30A368CDF82D
:10D6400014D01BB1E288ADF818200893A369002B11
:10D6500031D001AF03220021384605F07DF9A369DE
:10D660001A88ADF82C205A88ADF82E205A680D97EC
:10D67000187B0A923946FFF757FFA3690DF10501A0
:10D68000587BFFF751FFA269917A137A43EAC103ED
:10D69000D17A927B43EA01139DF80610002A03F029
:10D6A000190321F0190114BF022201220B4362F376
:10D6B00042038DF80630E36903B10C93334604AAA4
:10D6C00009A92846FFF72CFF11B0F0BDF0B50C46B4
:10D6D00089B0054616460021142203A805F03CF93E
:10D6E000A378A079012B38BF01238DF80A3001AF50
:10D6F0002388ADF80830394602AB0393FFF714FFD7
:10D70000E0790DF10501FFF70FFFE2786379217AE7
:10D71000049743EAC203227943EA02139DF80620E4
:10D72000002922F0190203F0190314BF022101217C
:10D73000134361F342038DF806306389ADF814306A
:10D74000A389ADF81630E389ADF818303246236965
:10D75000079303A92846FFF7E5FE09B0F0BDA5DF52
:10D760007047B5DF704750B14FF0171303601B23AC
:10D7700003711723C160C3808360002070470E20AF
:10D780007047000013B5034680880C4690B91A888C
:10D790003A2A64D010D8102A3AD0112A5BD0A37A42
:10D7A00043B1E1880020FFF7DAFF00286FD14FF482
:10D7B0008073638102B010BD552AF0D1DB88C9881F
:10D7C000A072172B38BF17238B4228BF0B4623812B
:10D7D000FFF7C7FF60B1FEF71FF9354B3549024629
:10D7E00035481B1ADB081B0443F00100FCF74EFE12
:10D7F000E37A002BD3D1E368002BD0D040F6772218
:10D8000000922289ADF80420694620469847C6E771
:10D81000DB7B012B04BF0B88CB80C98823898B421B
:10D82000BDD20020FFF79BFF10B90123E372B6E7DA
:10D83000112802D10123A372B1E7FEF7EDF81C4BCA
:10D840001E4902461C481B1ADB081B0443F001005A
:10D85000FCF71CFEA3E71723CB808B609FE75B8957
:10D86000CA88934228BF1346172BCA6838BF1723AC
:10D870000B814AB1C97A39B140F677210091ADF8F0
:10D8800004306946204690470023638187E71128CA
:10D8900090D0FEF7C1F8064B0849024606481B1A0D
:10D8A000DB081B0443F00100FCF7F0FD82E700BF3A
:10D8B000BC430200B7360200544302008636020021
:10D8C000B0DF704766DF704710B50021044640881E
:10D8D000FFF7F8FF034608B9237210BD112801D1E4
:10D8E0000123F9E76368BDE81040184760B159B1FA
:10D8F0000378DE2B0AD00B684360DE2303704FF6FB
:10D90000FF734380002070470E2070470820704747
:10D9100028B10378DE2B04D14180002070470E200F
:10D92000704708207047F0B5054685B00C46F1B148
:10D93000E8B10B78DE2B1AD182884B889A4204D149
:10D940000B7A13B10846FFF7BFFF2B88112B32D09B
:10D95000512B0ED0012B0AD12B7A012B07D1A9888C
:10D960006288914203D123722046FFF7ADFF05B0D4
:10D97000F0BDAE886388B342F9D1AF79022FF6D1FA
:10D98000AD7B2B1F022BF2D800211022684604F039
:10D99000E3FF052D14BF4FF4C073002369463046E2
:10D9A0008DF80070ADF80430FFF78AFF0028DED054
:10D9B00063689847DBE76388AA889A4204BF4FF6FA
:10D9C000FF736380D3E710DF704711DF70470000FB
:10D9D00013B5044609496846FDF7C4FF019808B924
:10D9E00002B010BDD0E900312046984718B1684612
:10D9F000FDF7C1FFF2E71120F2E700BF0037020098
:10DA000013B5044607496846FDF7ACFF019B0BB907
:10DA100002B010BD2046D3E9002190476846FDF7CB
:10DA2000AAFFF3E718370200084B9A6822B11A6878
:10DA300022F480021A607047054B4FF48002C3F84D
:10DA40008020BFF34F8FBFF36F8F70478438002063
:10DA500000E100E00B4991F816335A09EC23134119
:10DA6000DB0706D5084B9A683AB94FF480030B6080
:10DA7000704742F20200FCF7A5BE1A6842F4800229
:10DA80001A60704700E100E084380020F7B5194FB4
:10DA90003C7864BB184E012520463570FFF798FF8F
:10DAA000112821D02046FFF7ABFF144B8DF803401F
:10DAB000186801900DF10300FDF798F9104901A8CD
:10DAC000FFF781FF0446B0FA80F0400938709DF8F6
:10DAD0000300FDF7AFF93CB90A4B34701C70FFF737
:10DAE000B9FF2846FFF78CFF204603B0F0BD08249D
:10DAF000FAE700BFE52C0020E42C0020FB360200F2
:10DB0000E1A70100E62C0020F7B5154F3B781BB3C9
:10DB1000144E01203070FFF75BFF11284FF0000515
:10DB20001CD00220FFF76CFF0DF107008DF80750A5
:10DB3000FDF75CF9FFF749FF04469DF807003D70CB
:10DB4000FDF778F92CB93470FFF76EFF0320FFF76B
:10DB500057FF204603B0F0BD0824FAE72C46F8E74B
:10DB6000E52C0020E42C0020054B1B7833B1054B3D
:10DB70001B780BB1FFF7C8BFFFF788BF08207047BD
:10DB8000E42C0020E52C0020014B1878704700BFE2
:10DB9000E52C002007B508496846FDF7E3FE019B28
:10DBA00013B903B05DF804FBD3E900209047684641
:10DBB000FDF7E1FEF3E700BF0C370200FFF7EABF15
:10DBC00060DF704769DF704761DF704730B5114B28
:10DBD0001B7891B0E3B1104D34240DF1020103A87C
:10DBE000ADF80240FFF7F0FF70B9294601A8FDF734
:10DBF000B9FE029B002BF0D003A8D3E90021904787
:10DC000001A8FDF7B8FEF4E7052801D0FCF7DAFD1E
:10DC100011B030BDE72C00205C39020030B505465C
:10DC200085B00C46002900F096804C4B0B600C220E
:10DC3000002101A804F090FE01238DF8063022682F
:10DC40008DF80450062301A92020ADF80830FFF715
:10DC5000B9FF60B1FDF7E0FE414B42490246424840
:10DC60001B1ADB081B0443F00100FCF70FFC0C221D
:10DC7000002101A804F070FE012322688DF8053010
:10DC800001A94020FFF79EFF60B1FDF7C5FE344BB0
:10DC90003649024634481B1ADB081B0443F00100D6
:10DCA000FCF7F4FB0C22002101A804F055FE0A2326
:10DCB00022688DF8043001A90120FFF783FF60B1CD
:10DCC000FDF7AAFE264B2A49024627481B1ADB0805
:10DCD0001B0443F00100FCF7D9FB0C22002101A832
:10DCE00004F03AFE4FF4B0632268019301A9A12029
:10DCF000FFF768FF60B1FDF78FFE194B1D49024623
:10DD000019481B1ADB081B0443F00100FCF7BEFB9B
:10DD10000C22002101A804F01FFE9DF804302268A7
:10DD20006FF3000301A9A0208DF80430FFF74AFF2C
:10DD3000034668B1FDF770FE094B0F4902460A48D9
:10DD40001B1ADB081B0443F00100FCF79FFB0023B8
:10DD5000184605B030BD0E23FAE700BFE01A0020D8
:10DD6000D443020024370200544302006A37020001
:10DD7000B63702000238020053380200F8B50646F2
:10DD80000768FFF71DFF3368BB4205461DD91948D8
:10DD9000194C1A49241AE408240444F002042046C9
:10DDA000FCF770FB336816493A462046FCF777FBD0
:10DDB0004FF080533268D3F80C3112499B0203F1C3
:10DDC00000539A1A2046FCF761FB25B90E4B01223D
:10DDD0001A702846F8BD2846FDF71EFE064B0B4973
:10DDE000024604481B1ADB081B0443F00100FCF741
:10DDF0004DFBEEE754430200D4430200A638020074
:10DE0000D538020006390200E72C00203039020024
:10DE10004BDF70471FB50D4C01A8FFF7F9FF70B934
:10DE2000214602A8FDF79EFD039B002BF4D001982C
:10DE3000D3E90021904702A8FDF79DFDF4E70528EE
:10DE400001D0FCF7BFFC04B010BD00BF7439020064
:10DE50004FF080430122C3F878254FF0A043002201
:10DE6000C3F87027C3F87827C3F8142701F09EBBC6
:10DE700072DF704773DF704776DF70477ADF704775
:10DE80007CDF70477FDF70478FDF7047B1DF7047FF
:10DE900008B5054B01211878FFF7ECFF18B1BDE874
:10DEA0000840FCF78FBC08BD801B0020FCF78ABC33
:10DEB00013B50388212B044651D007D8112B2DD040
:10DEC000132B44D0102B0CD002B010BD522B4ED0CF
:10DED000562B01D03B2BF7D1A0881321FFF7CCFFA5
:10DEE00017E0274B27482849C01AC008000440F013
:10DEF0000300FCF7C7FA012004F082FA234AA18844
:10DF00001378234843F001031370224B1980FFF765
:10DF1000FFFC0028D8D0FCF755FCD5E7184B194872
:10DF20001D49C01AC008000440F00300FCF7AAFA1B
:10DF3000022004F065FA154A13786FF3000313709A
:10DF4000144B4FF6FF721A80FFF7A2FFBCE711488F
:10DF500000231A4685210088FFF794FFD9E70023A4
:10DF600001A98088ADF80430FFF78EFFD1E709489A
:10DF700000231A4619460088FFF788FFC9E700BF4B
:10DF800054430200944302008039020069370020A4
:10DF9000642D0020821B00208A39020008B5037816
:10DFA0004BB9054B3B211888FFF766FF18B1BDE858
:10DFB0000840FCF707BC08BD821B0020FCF702BC30
:10DFC00010B54FF48041A6B00020FCF7C7F808B1A7
:10DFD000FCF7F8FBFBF7F8FFFCF790FD08B1FCF746
:10DFE000F1FBFDF78FFC08B1FCF7ECFBFFF74EFDF2
:10DFF00008B1FCF7E7FB002316A901201693FFF7F1
:10E000000DFE08B1FCF7DEFB16A8FFF7B7FE08B15E
:10E01000FCF7D8FB112362488DF81C3004F0ACFCEF
:10E020005F4982B207A8FFF72BFF08B1FCF7CAFBD4
:10E030000822002116A804F08FFC5A4A4FF0C8733A
:10E0400016A8CDE91623FFF719FF08B1FCF7BAFBB4
:10E0500055480021FFF787FB08B1FCF7B3FB1022FE
:10E06000002107A804F078FC0021402216A804F043
:10E0700073FC002301934D484D4B00936946FFF715
:10E0800035FC08B1FCF79EFB4A4B4B480A9307A9A5
:10E0900000F0D7F808B1FCF795FB48491EA8FFF738
:10E0A00062FA1CA84649FFF75EFA012316A88DF80C
:10E0B000943000F069F908B1FCF784FB414801A9EC
:10E0C00000F080FB08B1FCF77DFB41F22353ADF873
:10E0D00000303C4B3C4C9B7C8DF802303C220021B4
:10E0E00007A804F039FC02238DF81C303C2240F2D2
:10E0F0000163002116A8ADF81E3004F02DFC224665
:10E10000012352F8041BADF8683007A8CDF86CD095
:10E11000FEF772FE08B1FCF755FB2C4AA16816A861
:10E12000FEF76AFE08B1FCF74DFB1822002101A89A
:10E1300004F012FC00230122ADF8103002934FF4DA
:10E1400080738DF80420ADF818301F492048402313
:10E1500001AA0393FFF78CFE08B1FCF733FB1C22E6
:10E16000002116A804F0F8FB00234FF4A022CDE90B
:10E170001632ADF866304FF4A0328DF86830154B8A
:10E1800018921B930322144B8DF8642016A81C933D
:10E19000FFF7FAF808B1FCF715FB26B010BD00BF79
:10E1A000973902005000A000542D0020642D00205B
:10E1B000ADDE01004A010101E82C0020A239020075
:10E1C000A8390200FC2C0020701B00207C1B0020C2
:10E1D000801B00209DDF0100BDDF0100FFF758BE5E
:10E1E000034B197A034B0246188800F085BC00BF28
:10E1F00054370020821B0020A8DF704737B5054642
:10E200000C46E1B1D8B10388502B18D14B7CB3B187
:10E21000C2884B899A4212D1038A022B0FD10B6814
:10E220006BB11230FFF795F9AB88ADF8063080F08E
:10E2300001008DF80400236801A92046984703B027
:10E2400030BD2DE9F0410E4690B0054600286AD059
:10E25000002968D00B6803600B794374FF230374B3
:10E260002A1D012041F60F0302A98DF80A00ADF81E
:10E270000830FFF7C1FF044600284ED12022337B2F
:10E280008DF8033001460DEB020004F065FB42F609
:10E290001923ADF820304FF0011309930DF103035A
:10E2A0000A936B7C9DF82D20A8881B0143F0020384
:10E2B00022F0120203F0120313438DF82D30B37BCA
:10E2C0008DF83330AA1D737B8DF8313008A9FFF724
:10E2D00053F9044608BBB16819B30DF10408404670
:10E2E000FFF73BF921460746142203A804F034FB4C
:10E2F000B8B242F60813ADF80C30ADF81600F37B57
:10E30000ADF81A0005F10E02E8888DF8123003A965
:10E31000CDF81C80FFF7DAF90446204610B0BDE8BE
:10E32000F081E881F9E70E24F7E7A8DF70470000E5
:10E33000F0B5074689B014461E460D4611B9084689
:10E34000FCF740FA14B92046FCF73CFA20220021E1
:10E35000684604F001FB9DF80D300E9AADF8007090
:10E3600043F002038DF80D30064BADF804401888D9
:10E37000ADF80640694602958DF81160FFF7FCF88C
:10E3800009B0F0BDA82D002030B587B041F60A03D2
:10E390005C4AADF80C30044603A901208DF80E004C
:10E3A000FFF7C3FF0546002849D12288002A49D13A
:10E3B000228952B1544B0093E16894F83C3042F604
:10E3C0002420FFF7B5FF002847D1228A52B14F4BD6
:10E3D0000093616994F83C3042F62520FFF7A8FFCE
:10E3E00000283AD1228B52B1494B0093E16994F84D
:10E3F0003C3042F62720FFF79BFF00282DD1228CCE
:10E400004AB1444B0093616A94F83C3042F62620AE
:10E41000FFF78EFF08BB228D4AB13F4B0093E16AA4
:10E4200094F83C3042F62820FFF782FFA8B9236B0E
:10E43000ABB9616B002938D1A36B002B42D12846C0
:10E4400007B030BD354B0093616894F83C3042F61C
:10E450002920FFF76DFF0028AAD00546EFE71A68CC
:10E460008DF810201A68120A8DF811205A888DF83C
:10E470001220DA788DF813205A688DF814209B68E2
:10E480008DF815301A0A1B0C8DF81730244B8DF8B7
:10E4900016200093082294F83C3004A942F6232069
:10E4A000FFF746FF0028C4D0D7E71E4B0A79009338
:10E4B000096894F83C3042F62A20FFF739FF00281B
:10E4C000BAD0CAE71A788DF810205A888DF8112032
:10E4D000120A8DF812209A888DF81320120A8DF8EE
:10E4E0001420DB888DF815301B0A8DF816300E4B82
:10E4F0000093072294F83C3004A942F65020FFF71D
:10E5000017FFAAE7A82D0020882D0020A02D0020AD
:10E51000782D0020702D0020AA2D0020802D0020B5
:10E52000B22D0020982D0020902D0020A8DF7047EC
:10E53000AEDF704762DF7047F8B50388502B0446A2
:10E5400040F01E81032003F05BFF8E4AE3881178C0
:10E55000994217D18C488D4D8D492D1AED082D0407
:10E5600045F003052846FBF78DFF228A8949284696
:10E57000FBF78CFF227C04F112010020BDE8F8407B
:10E5800002F068BA5178994225D17F487F4D82497F
:10E59000824F2D1AED082D0445F003052846FBF7A0
:10E5A00071FF228A7B492846FBF770FF0023228AED
:10E5B000D8B2904203F1010604D3D2B204F11201A1
:10E5C0000120DBE720443946837C28461A46FBF7C6
:10E5D00066FF3346EBE79178994225D16A486B4D47
:10E5E0006F496E4F2D1AED082D0445F0030528469E
:10E5F000FBF748FF228A67492846FBF747FF0023BD
:10E60000228AD8B2904203F1010604D3D2B204F1B7
:10E6100012010220B2E720443946837C28461A467C
:10E62000FBF73DFF3346EBE7D178994225D15648B9
:10E63000564D5C49594F2D1AED082D0445F0030540
:10E640002846FBF71FFF228A52492846FBF71EFF88
:10E650000023228AD8B2904203F1010604D3D2B239
:10E6600004F11201032089E720443946837C2846BF
:10E670001A46FBF714FF3346EBE75179994228D14C
:10E68000414B424D4849ED1AED082D0445F0030574
:10E6900026462846FBF7F6FE228A44492846FBF721
:10E6A000F5FE16F8122FE37C41492846FBF7F7FEEA
:10E6B000217C304601F0F3FC3E4902462846FBF738
:10E6C000E5FE217C304601F0EAFCBDE8F84001F0AF
:10E6D00075BE9179994227D12B4B2C4D3649ED1AB5
:10E6E000ED082D0445F0030526462846FBF7CAFE33
:10E6F000228A2E492846FBF7C9FE16F8122FE37C22
:10E700002B492846FBF7CBFE217C304601F0C7FCA5
:10E71000284902462846FBF7B9FE218A274A304697
:10E72000BDE8F840FCF7B8B8D2799A4228D1164B28
:10E73000164D2349ED1AED082D0445F00305264634
:10E740002846FBF79FFE228A18492846FBF79EFEC3
:10E7500016F8122FE37C16492846FBF7A0FE217C11
:10E76000304601F09CFC134902462846FBF78EFE1A
:10E77000217C304601F093FCBDE8F84001F010BF69
:10E78000F8BD00BF543700205443020094430200F8
:10E79000B6390200D1390200DE390200FD3902002B
:10E7A000073A0200293A0200453A0200613A0200A3
:10E7B000693A02006B3E0200783A0200F903020057
:10E7C000953A02002DE9F0430B6843618FB0C64BC8
:10E7D00002AA044603F11007164618685968154640
:10E7E00003C50833BB422A46F7D104F11201304673
:10E7F000FFF7A0FE0146002840F07281A37C8DF84F
:10E80000063001A941F2235322460120ADF804301D
:10E81000FFF78CFE0146002840F06281202206A806
:10E8200004F09AF841F22453ADF81830A046A37CC6
:10E830008DF81A309DF8253038F8020BAB4DDFF813
:10E84000B492CDF81C9023F00A0343F00A03012789
:10E85000424606A98DF825308DF829708DF82A706A
:10E86000FEF78AFE2B78A24E6288F254D9192970DD
:10E870000146002840F03481202206A804F06CF8FC
:10E8800041F22553ADF81830A37C8DF81A309DF86D
:10E8900025302088CDF81C9023F00A0343F00A03AA
:10E8A000424606A98DF825308DF829708DF82A701A
:10E8B000FEF762FE2B786288F254D919297001465E
:10E8C000002840F00D81202206A804F045F841F20E
:10E8D0002653ADF81830A37C8DF81A309DF82530FA
:10E8E0002088CDF81C9023F00A0343F00A03424627
:10E8F00006A98DF825308DF829708DF82A70FEF75D
:10E900003BFE2B786288F254D91929700146002801
:10E9100040F0E680202206A804F01EF841F22753BA
:10E92000ADF81830A37C8DF81A309DF8253020887A
:10E93000CDF81C9023F00A0343F00A03424606A9CF
:10E940008DF825308DF829708DF82A70FEF714FEA9
:10E950002B786288F254D91929700146002840F0BA
:10E96000BF80202206A803F0F7FF41F22953ADF83B
:10E970001830A37C8DF81A304FF0011307939DF8DF
:10E98000253020888DF8297023F0120343F01203FC
:10E99000424606A98DF825308DF82B70FEF7ECFD68
:10E9A0002B786288F254D91929700146002840F06A
:10E9B0009780202206A803F0CFFF41F23253ADF832
:10E9C0001830A37C8DF81A309DF825302088CDF8BA
:10E9D0001C9023F00A0343F00A03424606A98DF86F
:10E9E00025308DF829708DF82A70FEF7C5FD2B783B
:10E9F0006288F254D91929700146002870D120226A
:10EA000006A803F0A9FF41F23353ADF81830A37CF8
:10EA10008DF81A309DF825302088CDF81C9023F011
:10EA20000A0343F00A03424606A98DF825308DF803
:10EA300029708DF82A70FEF79FFD2B786288F254BA
:10EA4000D9192970014600284AD1202206A803F0CE
:10EA500083FF41F23453ADF81830A37C8DF81A309F
:10EA60009DF825302088CDF81C9023F00A0343F050
:10EA70000A03424606A98DF825308DF829708DF8D5
:10EA80002A70FEF779FD2B786288F254D919297023
:10EA9000014628BB202206A803F05EFF41F2355351
:10EAA000ADF81830A37C8DF81A304FF0011307939E
:10EAB0009DF825308DF82970224623F0120343F08B
:10EAC000120332F80A0B8DF8253006A98DF82B7049
:10EAD000FEF752FD2B786289F2540146D81928704E
